{
  "contractName": "P2PMarket",
  "abi": [
    {
      "inputs": [],
      "stateMutability": "nonpayable",
      "type": "constructor"
    },
    {
      "anonymous": false,
      "inputs": [
        {
          "indexed": true,
          "internalType": "address",
          "name": "oldOwner",
          "type": "address"
        },
        {
          "indexed": true,
          "internalType": "address",
          "name": "newOwner",
          "type": "address"
        }
      ],
      "name": "OwnerSet",
      "type": "event"
    },
    {
      "inputs": [
        {
          "internalType": "address",
          "name": "newOwner",
          "type": "address"
        }
      ],
      "name": "changeOwner",
      "outputs": [],
      "stateMutability": "nonpayable",
      "type": "function"
    },
    {
      "inputs": [],
      "name": "getOwner",
      "outputs": [
        {
          "internalType": "address",
          "name": "",
          "type": "address"
        }
      ],
      "stateMutability": "view",
      "type": "function",
      "constant": true
    },
    {
      "inputs": [],
      "name": "amParticipant",
      "outputs": [
        {
          "internalType": "bool",
          "name": "",
          "type": "bool"
        }
      ],
      "stateMutability": "view",
      "type": "function",
      "constant": true
    },
    {
      "inputs": [
        {
          "internalType": "address[]",
          "name": "newParticipants",
          "type": "address[]"
        }
      ],
      "name": "addParticipants",
      "outputs": [],
      "stateMutability": "nonpayable",
      "type": "function"
    },
    {
      "inputs": [
        {
          "internalType": "uint256",
          "name": "price",
          "type": "uint256"
        },
        {
          "internalType": "uint256",
          "name": "volume",
          "type": "uint256"
        }
      ],
      "name": "sendAsk",
      "outputs": [],
      "stateMutability": "nonpayable",
      "type": "function"
    },
    {
      "inputs": [],
      "name": "getAsks",
      "outputs": [
        {
          "components": [
            {
              "internalType": "address",
              "name": "seller",
              "type": "address"
            },
            {
              "internalType": "uint256",
              "name": "price",
              "type": "uint256"
            },
            {
              "internalType": "uint256",
              "name": "volume",
              "type": "uint256"
            }
          ],
          "internalType": "struct P2PMarket.Ask[]",
          "name": "",
          "type": "tuple[]"
        }
      ],
      "stateMutability": "view",
      "type": "function",
      "constant": true
    },
    {
      "inputs": [
        {
          "internalType": "uint256",
          "name": "askIndex",
          "type": "uint256"
        },
        {
          "internalType": "uint256",
          "name": "volume",
          "type": "uint256"
        }
      ],
      "name": "buy",
      "outputs": [],
      "stateMutability": "payable",
      "type": "function",
      "payable": true
    }
  ],
  "bytecode": "0x608060405234801561001057600080fd5b50336000806101000a81548173ffffffffffffffffffffffffffffffffffffffff021916908373ffffffffffffffffffffffffffffffffffffffff16021790555060008054906101000a900473ffffffffffffffffffffffffffffffffffffffff1673ffffffffffffffffffffffffffffffffffffffff16600073ffffffffffffffffffffffffffffffffffffffff167f342827c97908e5e2f71151c08502a66d44b6f758e3ac2f1de95f02eb95f0a73560405160405180910390a3610f14806100db6000396000f3fe6080604052600436106100705760003560e01c8063893d20e81161004e578063893d20e8146100f4578063a30267421461011f578063a6f9dae114610148578063d6febde81461017157610070565b80633e0e2e22146100755780635b4ccc9d146100a05780636bb51803146100c9575b600080fd5b34801561008157600080fd5b5061008a61018d565b604051610097919061088f565b60405180910390f35b3480156100ac57600080fd5b506100c760048036038101906100c29190610919565b6101e1565b005b3480156100d557600080fd5b506100de610313565b6040516100eb9190610ab1565b60405180910390f35b34801561010057600080fd5b506101096103dc565b6040516101169190610ae2565b60405180910390f35b34801561012b57600080fd5b5061014660048036038101906101419190610b29565b610405565b005b34801561015457600080fd5b5061016f600480360381019061016a9190610b95565b61054e565b005b61018b60048036038101906101869190610b29565b610699565b005b6000600160003373ffffffffffffffffffffffffffffffffffffffff1673ffffffffffffffffffffffffffffffffffffffff16815260200190815260200160002060009054906101000a900460ff16905090565b60008054906101000a900473ffffffffffffffffffffffffffffffffffffffff1673ffffffffffffffffffffffffffffffffffffffff163373ffffffffffffffffffffffffffffffffffffffff161461026f576040517f08c379a000000000000000000000000000000000000000000000000000000000815260040161026690610c1f565b60405180910390fd5b60005b8282905081101561030e57600180600085858581811061029557610294610c3f565b5b90506020020160208101906102aa9190610b95565b73ffffffffffffffffffffffffffffffffffffffff1673ffffffffffffffffffffffffffffffffffffffff16815260200190815260200160002060006101000a81548160ff021916908315150217905550808061030690610c9d565b915050610272565b505050565b60606002805480602002602001604051908101604052809291908181526020016000905b828210156103d357838290600052602060002090600302016040518060600160405290816000820160009054906101000a900473ffffffffffffffffffffffffffffffffffffffff1673ffffffffffffffffffffffffffffffffffffffff1673ffffffffffffffffffffffffffffffffffffffff1681526020016001820154815260200160028201548152505081526020019060010190610337565b50505050905090565b60008060009054906101000a900473ffffffffffffffffffffffffffffffffffffffff16905090565b600160003373ffffffffffffffffffffffffffffffffffffffff1673ffffffffffffffffffffffffffffffffffffffff16815260200190815260200160002060009054906101000a900460ff16610491576040517f08c379a000000000000000000000000000000000000000000000000000000000815260040161048890610d58565b60405180910390fd5b600260405180606001604052803373ffffffffffffffffffffffffffffffffffffffff16815260200184815260200183815250908060018154018082558091505060019003906000526020600020906003020160009091909190915060008201518160000160006101000a81548173ffffffffffffffffffffffffffffffffffffffff021916908373ffffffffffffffffffffffffffffffffffffffff160217905550602082015181600101556040820151816002015550505050565b60008054906101000a900473ffffffffffffffffffffffffffffffffffffffff1673ffffffffffffffffffffffffffffffffffffffff163373ffffffffffffffffffffffffffffffffffffffff16146105dc576040517f08c379a00000000000000000000000000000000000000000000000000000000081526004016105d390610c1f565b60405180910390fd5b8073ffffffffffffffffffffffffffffffffffffffff1660008054906101000a900473ffffffffffffffffffffffffffffffffffffffff1673ffffffffffffffffffffffffffffffffffffffff167f342827c97908e5e2f71151c08502a66d44b6f758e3ac2f1de95f02eb95f0a73560405160405180910390a3806000806101000a81548173ffffffffffffffffffffffffffffffffffffffff021916908373ffffffffffffffffffffffffffffffffffffffff16021790555050565b600160003373ffffffffffffffffffffffffffffffffffffffff1673ffffffffffffffffffffffffffffffffffffffff16815260200190815260200160002060009054906101000a900460ff16610725576040517f08c379a000000000000000000000000000000000000000000000000000000000815260040161071c90610d58565b60405180910390fd5b60006002838154811061073b5761073a610c3f565b5b906000526020600020906003020190508181600201541015610792576040517f08c379a000000000000000000000000000000000000000000000000000000000815260040161078990610dc4565b60405180910390fd5b60008282600101546107a49190610de4565b90503481146107e8576040517f08c379a00000000000000000000000000000000000000000000000000000000081526004016107df90610e8a565b60405180910390fd5b828260020160008282546107fc9190610eaa565b925050819055508160000160009054906101000a900473ffffffffffffffffffffffffffffffffffffffff1673ffffffffffffffffffffffffffffffffffffffff166108fc349081150290604051600060405180830381858888f1935050505015801561086d573d6000803e3d6000fd5b5050505050565b60008115159050919050565b61088981610874565b82525050565b60006020820190506108a46000830184610880565b92915050565b600080fd5b600080fd5b600080fd5b600080fd5b600080fd5b60008083601f8401126108d9576108d86108b4565b5b8235905067ffffffffffffffff8111156108f6576108f56108b9565b5b602083019150836020820283011115610912576109116108be565b5b9250929050565b600080602083850312156109305761092f6108aa565b5b600083013567ffffffffffffffff81111561094e5761094d6108af565b5b61095a858286016108c3565b92509250509250929050565b600081519050919050565b600082825260208201905092915050565b6000819050602082019050919050565b600073ffffffffffffffffffffffffffffffffffffffff82169050919050565b60006109bd82610992565b9050919050565b6109cd816109b2565b82525050565b6000819050919050565b6109e6816109d3565b82525050565b606082016000820151610a0260008501826109c4565b506020820151610a1560208501826109dd565b506040820151610a2860408501826109dd565b50505050565b6000610a3a83836109ec565b60608301905092915050565b6000602082019050919050565b6000610a5e82610966565b610a688185610971565b9350610a7383610982565b8060005b83811015610aa4578151610a8b8882610a2e565b9750610a9683610a46565b925050600181019050610a77565b5085935050505092915050565b60006020820190508181036000830152610acb8184610a53565b905092915050565b610adc816109b2565b82525050565b6000602082019050610af76000830184610ad3565b92915050565b610b06816109d3565b8114610b1157600080fd5b50565b600081359050610b2381610afd565b92915050565b60008060408385031215610b4057610b3f6108aa565b5b6000610b4e85828601610b14565b9250506020610b5f85828601610b14565b9150509250929050565b610b72816109b2565b8114610b7d57600080fd5b50565b600081359050610b8f81610b69565b92915050565b600060208284031215610bab57610baa6108aa565b5b6000610bb984828501610b80565b91505092915050565b600082825260208201905092915050565b7f43616c6c6572206973206e6f74206f776e657200000000000000000000000000600082015250565b6000610c09601383610bc2565b9150610c1482610bd3565b602082019050919050565b60006020820190508181036000830152610c3881610bfc565b9050919050565b7f4e487b7100000000000000000000000000000000000000000000000000000000600052603260045260246000fd5b7f4e487b7100000000000000000000000000000000000000000000000000000000600052601160045260246000fd5b6000610ca8826109d3565b91507fffffffffffffffffffffffffffffffffffffffffffffffffffffffffffffffff821415610cdb57610cda610c6e565b5b600182019050919050565b7f43616c6c6572206973206e6f74206e6574776f726b207061727469636970616e60008201527f7400000000000000000000000000000000000000000000000000000000000000602082015250565b6000610d42602183610bc2565b9150610d4d82610ce6565b604082019050919050565b60006020820190508181036000830152610d7181610d35565b9050919050565b7f566f6c756d6520657863656564732061736b20766f6c756d6500000000000000600082015250565b6000610dae601983610bc2565b9150610db982610d78565b602082019050919050565b60006020820190508181036000830152610ddd81610da1565b9050919050565b6000610def826109d3565b9150610dfa836109d3565b9250817fffffffffffffffffffffffffffffffffffffffffffffffffffffffffffffffff0483118215151615610e3357610e32610c6e565b5b828202905092915050565b7f496e636f7272656374207061796d656e742076616c7565000000000000000000600082015250565b6000610e74601783610bc2565b9150610e7f82610e3e565b602082019050919050565b60006020820190508181036000830152610ea381610e67565b9050919050565b6000610eb5826109d3565b9150610ec0836109d3565b925082821015610ed357610ed2610c6e565b5b82820390509291505056fea2646970667358221220a6a195fcedf5137f2a3de7e5ee0c0d97f08ff8550b7f11cc10112e3dd4c20cdf64736f6c63430008090033",
  "immutableReferences": {},
  "source": "// SPDX-License-Identifier: GPL-3.0\n\npragma solidity >=0.7.0 <0.9.0;\n\ncontract P2PMarket {\n    struct Ask {\n        address seller;\n        uint256 price;\n        uint256 volume;\n    }\n\n    address private owner;\n    mapping(address => bool) private participants;\n    Ask[] private asks;\n\n    // event for EVM logging\n    event OwnerSet(address indexed oldOwner, address indexed newOwner);\n\n    // modifier to check if caller is owner\n    modifier isOwner() {\n        // If the first argument of 'require' evaluates to 'false', execution terminates and all\n        // changes to the state and to Ether balances are reverted.\n        // This used to consume all gas in old EVM versions, but not anymore.\n        // It is often a good idea to use 'require' to check if functions are called correctly.\n        // As a second argument, you can also provide an explanation about what went wrong.\n        require(msg.sender == owner, \"Caller is not owner\");\n        _;\n    }\n\n    modifier isParticipant() {\n        require(participants[msg.sender], \"Caller is not network participant\");\n        _;\n    }\n\n    /**\n     * @dev Set contract deployer as owner\n     */\n    constructor() {\n        owner = msg.sender; // 'msg.sender' is sender of current call, contract deployer for a constructor\n        emit OwnerSet(address(0), owner);\n    }\n\n    /**\n     * @dev Change owner\n     * @param newOwner address of new owner\n     */\n    function changeOwner(address newOwner) public isOwner {\n        emit OwnerSet(owner, newOwner);\n        owner = newOwner;\n    }\n\n    /**\n     * @dev Return owner address\n     * @return address of owner\n     */\n    function getOwner() external view returns (address) {\n        return owner;\n    }\n\n    function amParticipant() external view returns (bool) {\n        return participants[msg.sender];\n    }\n\n    function addParticipants(address[] calldata newParticipants)\n        external\n        isOwner\n    {\n        for (uint256 i = 0; i < newParticipants.length; i++) {\n            participants[newParticipants[i]] = true;\n        }\n    }\n\n    function sendAsk(uint256 price, uint256 volume) external isParticipant {\n        asks.push(Ask(msg.sender, price, volume));\n    }\n\n    function getAsks() public view returns (Ask[] memory) {\n        return asks;\n    }\n\n    function buy(uint256 askIndex, uint256 volume)\n        public\n        payable\n        isParticipant\n    {\n        Ask storage ask = asks[askIndex];\n        require(ask.volume >= volume, \"Volume exceeds ask volume\");\n        uint256 totalPrice = ask.price * volume;\n        require(totalPrice == msg.value, \"Incorrect payment value\");\n        ask.volume -= volume;\n        payable(ask.seller).transfer(msg.value);\n    }\n}\n",
  "sourcePath": "/home/denis/best-energy-core/contracts/P2PMarket.sol",
  "compiler": {
    "name": "solc",
    "version": "0.8.9+commit.e5eed63a.Emscripten.clang"
  },
  "schemaVersion": "3.4.7",
  "updatedAt": "2022-06-04T09:50:25.437Z",
  "networkType": "ethereum",
  "devdoc": {
    "kind": "dev",
    "methods": {
      "changeOwner(address)": {
        "details": "Change owner",
        "params": {
          "newOwner": "address of new owner"
        }
      },
      "constructor": {
        "details": "Set contract deployer as owner"
      },
      "getOwner()": {
        "details": "Return owner address",
        "returns": {
          "_0": "address of owner"
        }
      }
    },
    "version": 1
  },
  "userdoc": {
    "kind": "user",
    "methods": {},
    "version": 1
  }
}